:100000000C9463000C948B000C948B000C948B006C
:100010000C948B000C948B000C948B000C948B0034
:100020000C948B000C948B000C948B000C948B0024
:100030000C948B000C948B000C948B000C948B0014
:100040000C94510A0C948B000C9458080C948B005F
:100050000C948B000C948B000C948B000C948B00F4
:100060000C948B000C948B000000000024002700EF
:100070002A0000000000250028002B0000000000DE
:1000800023002600290004040404040404040202DA
:100090000202020203030303030301020408102007
:1000A0004080010204081020010204081020000012
:1000B0000007000201000003040600000000000029
:1000C00000005902110911241FBECFEFD8E0DEBF96
:1000D000CDBF14E0A0E0B1E0E0E9FBE102C0059093
:1000E0000D92A633B107D9F715E0A6E3B4E001C03D
:1000F0001D92AA30B107E1F710E0C6ECD0E004C0D1
:100100002297FE010E94C20DC23CD107C9F70E948E
:1001100051080C94C60D0C940000AF92BF92CF9280
:10012000DF92EF92FF920F931F93CF93DF938C0197
:10013000B62EFC018381642F0E947F0BF80184811D
:1001400060E00E947F0BF80182818823C9F1680179
:100150007801C4E0D0E0AB2CBB24B5010C2E02C06A
:10016000759567950A94E2F76170F70186810E94A0
:100170007F0B0894E11CF11C2196C830D10569F76A
:10018000F801858161E00E947F0BF801858160E0C4
:100190000E947F0BC0E0D0E0B5010C2E02C0759527
:1001A00067950A94E2F76170F60186810E947F0BE1
:1001B00021960894C11CD11CC430D10569F718C020
:1001C0007801C0E0D0E0CB2CDD24B6010C2E02C0BB
:1001D000759567950A94E2F76170F70186810E9430
:1001E0007F0B21960894E11CF11CC830D10569F7FA
:1001F000F801858161E00E947F0BF801858160E054
:100200000E947F0BDF91CF911F910F91FF90EF9094
:10021000DF90CF90BF90AF90089541E00E948D0095
:10022000089540E00E948D000895DF93CF93CDB7ED
:10023000DEB728970FB6F894DEBF0FBECDBF362FBE
:10024000FA01AE014F5F5F4F67E274E028E0DB0127
:100250000D90BD01DA010D92AD012150C1F7EE0FF5
:10026000FF1FEC0FFD1F6181630F60680E94110189
:1002700028960FB6F894DEBF0FBECDBFCF91DF91A9
:10028000089561E00E94110180ED97E00E94F90A53
:1002900008958F929F92AF92CF92EF920F934C015D
:1002A000862F65E274E0F4017183608391E09283AC
:1002B0008383448325830683E782C086A18661E029
:1002C0000E945F0BF401848161E00E945F0BF401E6
:1002D000858161E00E945F0BF401868161E00E94EC
:1002E0005F0BF401878161E00E945F0BF401808560
:1002F00061E00E945F0BF401818561E00E945F0B69
:10030000C40168E20E941101C4016CE00E94110165
:10031000C40166E00E941101C4010E9441010F91D5
:10032000EF90CF90AF909F908F900895FC01108236
:100330008FEF81830895EF92FF920F931F93CF93D6
:10034000DF93EC019B0177FF03C020E030E005C0A4
:10035000653B710514F024EB30E02983EA806B8162
:1003600070E06E197109882777FD8095982F982F76
:10037000872F762F662730E040E050E00E943D0D49
:1003800024EB30E040E050E00E94910DFF2400E0BB
:1003900010E0102F0F2DFE2CEE24E20EF31E041F92
:1003A000151FC801B70128E030E040E050E00E948E
:1003B000910D8881893029F4309389002093880039
:1003C00006C08A3021F430938B0020938A00DF919D
:1003D000CF911F910F91FF90EF900895FC018181C3
:1003E0000895CF93DF93EC01FB01CB0109970297AE
:1003F00010F080E054C0CA0160E170E00E945C0D22
:100400006A83C90160E170E00E945C0D6B83E88340
:100410008FEF89838E2F60E00E947F0B888161E0DF
:100420000E945F0B80913604882311F58091370478
:100430008823F1F42FB7F89482E0809380008AE15A
:100440008093810088EB9BE09093890080938800E3
:1004500090938B0080938A0080E49CE990938700BE
:100460008093860080916F00887F80936F002FBFFC
:100470008881893041F481E0809336048091800046
:100480008F73806809C08A3049F481E08093370413
:10049000809180008F7C80628093800081E0DF917A
:1004A000CF91089540E252E020E639E00E94F10148
:1004B0000895AF92CF92EF920F938CE394E06CE0AB
:1004C0004BE02AE005E074E0E72E53E0C52E32E071
:1004D000A32E0E9449018AE494E00E9496010F91A4
:1004E000EF90CF90AF900895CF92DF92EF92FF926E
:1004F0000F931F937C016B010CE314E0C8010E9471
:100500004101C80160E070E040E050E00E94150148
:10051000C801B7010E945009C80160E070E041E0E5
:1005200050E00E941501C801B6010E9450090CEE6E
:1005300014E0C80160E071E00E945009C801B701F1
:100540000E947F09C80160E171E00E945009C80162
:10055000B6010E947F09C80160E271E00E947F0934
:100560001F910F91FF90EF90DF90CF90089581E061
:10057000809366048CEE94E061E271E00E947F0952
:1005800088E391E067E471E00E947402089581E0DD
:10059000809364048CEE94E066E571E00E947F092C
:1005A00081E791E06BE771E00E9474020895109278
:1005B00064041092650460E177E280E090E00E94BC
:1005C000CF0A87E891E066E971E00E94740268E86A
:1005D00073E180E090E00E94CF0A0E94C702089574
:1005E000CF93DF939C01EB01853B91051CF024EB3D
:1005F00030E004C097FF02C020E030E08AE494E0DD
:10060000B9010E949B01209739F0BE01882777FD30
:100610008095982F0E94CF0ADF91CF910895809105
:1006200012040E94CC0B90935504809354040197BC
:1006300009F06CC08091580490915904892B09F0FD
:1006400065C00E94C10A20915C0430915D04409114
:100650005E0450915F04621B730B840B950B209119
:100660001C0430911D0440911E0450911F04261754
:1006700037074807590708F049C00E94C10A60932C
:100680005C0470935D0480935E0490935F048CEE31
:1006900094E067EA71E00E947F0921E030E034C015
:1006A00080915A0490915B04892B09F042C00E940A
:1006B000C10A20916004309161044091620450911C
:1006C0006304621B730B840B950B20911C04309107
:1006D0001D0440911E0450911F0426173707480738
:1006E000590738F50E94C10A609360047093610451
:1006F00080936204909363048CEE94E068EB71E065
:100700000E947F0922E030E0C901089580915404DD
:100710009091550490935904809358048091140447
:100720000E94CC0B9093570480935604019709F4D0
:10073000B7CF809156049091570490935B048093B7
:100740005A040895CF92DF92EF92FF920F931F9376
:10075000809138040E94410B90934F0480934E0483
:10076000AA2797FDA095BA2FBC01CD010E944E0C7F
:1007700020E030E040EA50E40E94DA0C20E030E073
:1007800048EC52E40E94DA0C20E030E040E85AE302
:100790000E94DA0C0E941B0C7B018C01ECEECE2E29
:1007A000E4E0DE2EC60169EC71E00E945009C6014A
:1007B000B7010E94490AC60160E271E00E947F0908
:1007C000C7011F910F91FF90EF90DF90CF90089598
:1007D000AF92BF92CF92DF92EF92FF920F931F934F
:1007E000CF93DF938CEE94E06CEE71E00E947F0972
:1007F0008AE494E00E94EE01C82FD0E00E94A20398
:10080000B2E0EB2EF12CEC0EFD1E8E0102501040DA
:10081000AAE0AA2EB12CAC0EBD1EF6EFCF2EFFEF34
:10082000DF2ECC0EDD1E0E94A2039C018C179D07BB
:1008300094F080916704882311F4C60101C0C501BA
:1008400060E070E00E94F00268EE73E080E090E00B
:100850000E94CF0A17C006968C179D079CF4265F4E
:100860003F4F809167042C173D071CF4882319F42F
:1008700004C0882311F4C80101C0C70160E070E022
:100880000E94F00268EE73E080E090E00E94CF0AE0
:100890000E94A20320915204309153042817390773
:1008A00014F2DF91CF911F910F91FF90EF90DF90A5
:1008B000CF90BF90AF900895CF92DF92EF92FF92CA
:1008C0000F931F93CF93DF938CEE94E06CE072E074
:1008D0000E947F090E94A203182F092F8AE494E046
:1008E0000E94EE0190E0412F502F9A018901CEE144
:1008F000D0E03EEFC32E3FEFD32EC80ED91E22E02C
:10090000E22EF12CE80EF91E8CE394E00E944101E6
:100910008CE394E060E070E040E050E00E9415015C
:100920008CE394E06AE272E00E9450098CE394E068
:10093000BE010E94490A8CE394E067E372E00E94E2
:1009400050098CE394E060E070E041E050E00E94E8
:1009500015018CE394E069E372E00E9450098CE396
:1009600094E0B8010E94490A8CE394E06FED0E9484
:1009700048098CE394E06FE372E00E9450090E9402
:10098000A2038C0181E004301807C1F081E0083037
:1009900018072CF080916704882349F40AC081E08D
:1009A000013018075CF480916704882311F4C701B3
:1009B00001C0C60160E070E00E94F00268EE73E0E2
:1009C00080E090E00E94CF0A21978FEFCF3FD807B9
:1009D00009F09ACFDF91CF911F910F91FF90EF9087
:1009E000DF90CF900895CF93DF938CEE94E061E495
:1009F00072E00E947F098AE494E00E94EE010E9466
:100A0000A203C4E1D0E08CE394E00E9441018CE3B6
:100A100094E060E070E040E050E00E9415018CE35B
:100A200094E06BE672E00E9450098CE394E0BE0112
:100A30000E94490A8CE394E067E372E00E94500947
:100A40008CE394E060E070E041E050E00E9415012A
:100A50008CE394E069E372E00E9450090E94A203D3
:100A6000BC018CE394E00E94490A8CE394E06FEDB2
:100A70000E9448098CE394E06FE372E00E94500901
:100A800068EE73E080E090E00E94CF0A21978FEF3C
:100A9000CF3FD80709F0B7CFDF91CF910895AF923C
:100AA000BF92CF92DF92EF92FF920F931F93CF935B
:100AB000DF938CEE94E066E772E00E947F098091FC
:100AC00018049091190468E873E10E94F0028AE426
:100AD00094E00E94EE01082F10E00E94A2036C0136
:100AE000EC01EE24FF244BEFA42E4FEFB42EA00E0A
:100AF000B11E0B5F1F4F8CE394E00E9441018CE319
:100B000094E060E070E040E050E00E9415018CE36A
:100B100094E065E972E00E9450098CE394E060E0A3
:100B200070E041E050E00E9415018CE394E069E33D
:100B300072E00E9450098CE394E0BE010E94490AD1
:100B40008CE394E06FED0E9448098CE394E066EA40
:100B500072E00E9450098CE394E06FED0E94480916
:100B60008CE394E06FE372E00E9450090E94A203BC
:100B7000EC01C816D9065CF080916704882311F453
:100B8000C80101C0C50160E070E00E94F00268EE9B
:100B900073E080E090E00E94CF0A0894E11CF11C11
:100BA00088E7E816F10409F0A6CFDF91CF911F91F5
:100BB0000F91FF90EF90DF90CF90BF90AF9008958E
:100BC000CF93DF938CEE94E06CEA72E00E947F0991
:100BD000809118049091190464EF71E00E94F00272
:100BE0000E94A203909351048093500460ED77E03B
:100BF00080E090E00E94CF0AC0915004D09151044F
:100C00008CE394E00E9441018CE394E060E070E0AA
:100C100040E050E00E9415018CE394E061ED72E049
:100C20000E9450098CE394E060E070E041E050E005
:100C30000E9415018CE394E069E372E00E94500980
:100C40008CE394E0BE010E94490A8CE394E06FEDCE
:100C50000E9448098CE394E062EE72E00E94500921
:100C60008CE394E06FED0E9448098CE394E06FE31D
:100C700072E00E94500980915004909151048C17A9
:100C80009D0721F4873991050CF4ACCF8CEE94E0EC
:100C900068EE72E00E9450098CEE94E0BE010E9462
:100CA000490A8CEE94E06FED0E9448098CEE94E0C6
:100CB0006FE372E00E947F09D0935304C093520403
:100CC0008CE394E00E9441018CE394E060E070E0EA
:100CD00040E050E00E9415018CE394E069E073E08D
:100CE0000E9450098CE394E060E070E041E050E045
:100CF0000E9415018CE394E069E372E00E945009C0
:100D000060915204709153048CE394E00E94490A6C
:100D10008CE394E06FED0E9448098CE394E06FE36C
:100D200072E00E94500968EE73E080E090E00E945B
:100D3000CF0ADF91CF9108950F931F93CF93DF9345
:100D40008CEE94E067E173E00E947F0984E393E016
:100D500067E471E00E947402209118043091190434
:100D600080913A0490913B04281739071CF41092A3
:100D7000670403C081E0809367046091160470915A
:100D800017048AE494E00E9452028AE494E00E94EC
:100D9000EE01209118043091190490E08217930716
:100DA00029F0C90168EE73E00E94F00260913A04F4
:100DB00070913B048AE494E00E949B01C0E0D0E083
:100DC0000E94A2038C0168E873E180E090E00E9439
:100DD000CF0A0E94A2030B5F1F4F081719075CF090
:100DE000C233D10511F02196EBCF80E0DF91CF9196
:100DF0001F910F910895809118049091190468EE45
:100E000073E00E94F00281E0F1CF8CEE94E062E4A6
:100E100073E00E947F0981E080936504109264046E
:100E20000E949C06882309F43FC0809166048823B1
:100E3000D9F50E94E00580916604882331F48FE59E
:100E400093E06DE673E00E9474028091660488234B
:100E500031F460E177E280E090E00E94CF0A809177
:100E60006604882311F40E944F058091660488234C
:100E700011F40E94F30480916604882311F40E9407
:100E80005C0480916604882311F40E94E803809139
:100E90006604882331F48AE793E066E873E00E94F1
:100EA00074020E94D702089584E393E065E973E039
:100EB0000E94740208958CEE94E065EA73E00E944B
:100EC0007F0981E080936504109264040E949C066F
:100ED000882309F491C080916604882309F08CC0AE
:100EE0000E94E00580916604882331F48FE593E049
:100EF0006DE673E00E94740280916604882331F4E9
:100F000060E177E280E090E00E94CF0A8AE494E01A
:100F10000E94EE0160913A0470913B0490E08617C4
:100F2000970771F080916604882351F48AE494E075
:100F30000E949B0168EE73E080E090E00E94CF0A7F
:100F400080916604882331F484EC93E062ED73E0D1
:100F50000E9474020E94A203845091400CF042C08F
:100F6000809166048823F1F5F5CF80EE93E06AEE78
:100F700073E00E94740280916604882331F460E279
:100F80007EE480E090E00E94CF0A8091660488238E
:100F900041F460911804709119048AE494E00E946D
:100FA0009B0180916604882331F486EF93E067E427
:100FB00071E00E9474020E94A203209152043091B9
:100FC0005304281739079CF480916604882379F428
:100FD000F2CF84E094E066E873E00E9474020E941D
:100FE000D702089580916604882329F6BECF8091A8
:100FF00066048823A1F7EDCF0895809164048130C1
:1010000081F480916504882361F40E940F030197A5
:1010100011F40E9405070E940F03029711F40E9429
:101020005B0780916404882381F48091650481309A
:1010300061F40E940F03019711F40E94B7020E940D
:101040000F03029711F40E94B70208958CEE94E00A
:1010500040E855E260E070E00E949508809112043B
:1010600060E00E945F0B8091140460E00E945F0BBF
:1010700080911A0461E00E945F0B80911A0461E084
:101080000E947F0B87E891E066E971E00E9474029C
:1010900068E873E180E090E00E94CF0A0E94C702F6
:1010A00008950E94070B0E9426080E94FD07FDCFAD
:1010B0001F920F920FB60F9211242F933F934F93CD
:1010C0005F936F937F938F939F93AF93BF93EF93B0
:1010D000FF934091C600E091E804F091E904CF014C
:1010E000019660E870E00E945C0D9C018091EA042A
:1010F0009091EB042817390739F0E859FB4F4083EA
:101100003093E9042093E804FF91EF91BF91AF91F0
:101110009F918F917F916F915F914F913F912F910F
:101120000F900FBE0F901F901895AF92BF92CF9265
:10113000DF92EF92FF920F931F93CF93DF936C0197
:101140007A018B01DC011496AD90BC901597CB0110
:10115000BA0122E030E040E050E00E94910D205CB6
:101160003D4B404F5F4FCA01B901A80197010E9452
:10117000910DC901DA010197A109B109292F3A2F6F
:101180004B2F552747FD5A950196A11DB11DE5012D
:101190002883E601EE81FF8181508083EA85FB850B
:1011A000208141E050E0CA010E8402C0880F991FDF
:1011B0000A94E2F7282B2083EA85FB852081CA0167
:1011C0000F8402C0880F991F0A94E2F7282B20830E
:1011D000EA85FB858081088802C0440F551F0A9468
:1011E000E2F7842B8083DF91CF911F910F91FF90C5
:1011F000EF90DF90CF90BF90AF900895FC01A08555
:10120000B18521898C9190E0022E02C09595879539
:101210000A94E2F780FFF6CF0484F585E02D608321
:10122000089583E394E09093ED048093EC0488E6C2
:1012300094E09093EF048093EE0485EC90E090931B
:10124000F1048093F00484EC90E09093F304809395
:10125000F20480EC90E09093F5048093F40481EC28
:1012600090E09093F7048093F60486EC90E09093DE
:10127000F9048093F80484E08093FA0483E0809377
:10128000FB0487E08093FC0485E08093FD040895CF
:10129000DC01ED91FC910190F081E02D099508951C
:1012A0000F931F93CF93DF938C01EB0109C021961D
:1012B000D801ED91FC910190F081E02DC8010995D4
:1012C00068816623A1F7DF91CF911F910F91089557
:1012D0000F931F938C01DC01ED91FC910190F08143
:1012E000E02D6DE00995D801ED91FC910190F08120
:1012F000E02DC8016AE009951F910F9108950F93A1
:101300001F938C010E945009C8010E9468091F9117
:101310000F9108952F923F924F925F926F927F921A
:101320008F929F92AF92BF92CF92DF92EF92FF92F5
:101330000F931F93DF93CF93CDB7DEB7A0970FB670
:10134000F894DEBF0FBECDBF1C016A017B014115C1
:1013500051056105710549F4DC01ED91FC910190A5
:10136000F081E02D60E3099554C08824992454014C
:10137000422E55246624772401E010E00C0F1D1F37
:10138000080D191DC701B601A30192010E946F0D3E
:10139000F80160830894811C911CA11CB11CC70139
:1013A000B601A30192010E946F0DC901DA016C011F
:1013B0007D01C114D104E104F104F1F681E0E82ECD
:1013C000F12CEC0EFD1EE80CF91C3E010894611C8A
:1013D000711CD501C4010197A109B1096C01C8189C
:1013E000D90814C0F601EE0DFF1D60816A3010F4BB
:1013F000605D01C0695CD101ED91FC910190F081CB
:10140000E02DC10109950894E108F1086E147F04EC
:1014100049F7A0960FB6F894DEBF0FBECDBFCF91AF
:10142000DF911F910F91FF90EF90DF90CF90BF90D1
:10143000AF909F908F907F906F905F904F903F9074
:101440002F900895EF92FF920F931F93CF93DF9306
:10145000EC017A018B0177FF0FC0E881F9810190DF
:10146000F081E02D6DE2099510950095F094E094DF
:10147000E11CF11C011D111DCE01B801A7012AE0DC
:101480000E948A09DF91CF911F910F91FF90EF90F9
:101490000895AB01662757FD6095762F0E94220ABA
:1014A00008951F920F920FB60F9211242F938F93CE
:1014B0009F93AF93BF938091FE049091FF04A091FE
:1014C0000005B09101050196A11DB11D8093FE0498
:1014D0009093FF04A0930005B0930105809102054D
:1014E00090910305A0910405B09105058050904CA2
:1014F000AF4FBF4F8093020590930305A09304055F
:10150000B093050527C08091020590910305A09135
:101510000405B091050580589E43A040B0408093DB
:10152000020590930305A0930405B09305058091EF
:10153000060590910705A0910805B091090501964F
:10154000A11DB11D8093060590930705A093080582
:10155000B09309058091020590910305A0910405BF
:10156000B091050581589E43A040B04060F6BF9100
:10157000AF919F918F912F910F900FBE0F901F9061
:1015800018958FB7F8942091060530910705409182
:101590000805509109058FBFB901CA010895EF925E
:1015A000FF920F931F937B018C018FB7F8944091AA
:1015B00006055091070560910805709109058FBFD8
:1015C0002FB7F8948091060590910705A091080522
:1015D000B09109052FBF841B950BA60BB70BE8161E
:1015E000F9060A071B0760F71F910F91FF90EF9014
:1015F0000895019759F0FC01EE0FFF1FEE0FFF1F3A
:1016000032978FB7F8943197F1F78FBF0895789498
:1016100084B5826084BD84B5816084BD85B58260F7
:1016200085BD85B5816085BDEEE6F0E08081816095
:101630008083E1E8F0E08081826080838081816046
:101640008083E0E8F0E0808181608083E1EBF0E07E
:10165000808184608083E0EBF0E080818160808322
:10166000EAE7F0E08081846080838081826080830B
:101670008081816080838081806880831092C10036
:1016800008958770909120049295990F990F907CFE
:10169000982B90937C0080917A00806480937A00EC
:1016A00080917A0086FDFCCF2091780040917900EE
:1016B000942F80E030E0282B392BC9010895282F82
:1016C00030E0C90186569F4FFC0194912A573F4F45
:1016D000F9018491882391F0E82FF0E0EE0FFF1FCD
:1016E000E859FF4FA591B491662329F48C91909508
:1016F00089238C9308958C91892B8C930895482F7E
:1017000050E0CA0182559F4FFC012491CA018656C0
:101710009F4FFC0194914A575F4FFA013491332354
:10172000D1F1222331F1233021F4809180008F7791
:1017300005C0243031F4809180008F7D809380003B
:1017400018C0213019F484B58F7704C0223021F4F9
:1017500084B58F7D84BD0DC0263021F48091B0000A
:101760008F7705C0273029F48091B0008F7D80935A
:10177000B000E32FF0E0EE0FFF1FEE58FF4FA591F2
:10178000B491662329F48C91909589238C930895C4
:101790008C91892B8C930895682F70E0CB01825532
:1017A0009F4FFC012491CB0186569F4FFC01449131
:1017B0006A577F4FFB019491992319F420E030E0A0
:1017C00038C0222331F1233021F4809180008F77BB
:1017D00005C0243031F4809180008F7D809380009B
:1017E00018C0213019F484B58F7704C0223021F459
:1017F00084B58F7D84BD0DC0263021F48091B0006A
:101800008F7705C0273029F48091B0008F7D8093B9
:10181000B000892F90E0880F991F84589F4FFC01DA
:10182000A591B4918C9120E030E0842311F021E067
:1018300030E0C901089504D06894B111B5C008958D
:1018400098D088F09F5790F0B92F9927B751A0F002
:10185000D1F0660F771F881F991F1AF0BA95C9F744
:1018600012C0B13081F09FD0B1E008959CC0672FC5
:10187000782F8827B85F39F0B93FCCF386957795F4
:101880006795B395D9F73EF49095809570956195DD
:101890007F4F8F4F9F4F0895E89409C097FB3EF408
:1018A00090958095709561957F4F8F4F9F4F9923AD
:1018B000A9F0F92F96E9BB279395F695879577952B
:1018C0006795B795F111F8CFFAF4BB0F11F460FFEB
:1018D0001BC06F5F7F4F8F4F9F4F16C0882311F043
:1018E00096E911C0772321F09EE8872F762F05C057
:1018F000662371F096E8862F70E060E02AF09A95F2
:10190000660F771F881FDAF7880F9695879597F9E6
:10191000089597F99F6780E870E060E008959FEF71
:1019200080EC089500240A94161617061806090676
:10193000089500240A941216130614060506089545
:10194000092E0394000C11F4882352F0BB0F40F4CD
:10195000BF2B11F460FF04C06F5F7F4F8F4F9F4F0D
:10196000089557FD9058440F551F59F05F3F71F08F
:101970004795880F97FB991F61F09F3F79F08795F6
:101980000895121613061406551FF2CF4695F1DF7F
:1019900008C0161617061806991FF1CF869571050F
:1019A000610508940895E894BB2766277727CB0143
:1019B00097F908950BD0C4CFB5DF28F0BADF18F03F
:1019C000952309F0A6CFABCF1124EECFCADFA0F349
:1019D000959FD1F3950F50E0551F629FF001729FC4
:1019E000BB27F00DB11D639FAA27F00DB11DAA1FE3
:1019F000649F6627B00DA11D661F829F2227B00D30
:101A0000A11D621F739FB00DA11D621F839FA00DBA
:101A1000611D221F749F3327A00D611D231F849F0A
:101A2000600D211D822F762F6A2F11249F57504061
:101A30008AF0E1F088234AF0EE0FFF1FBB1F661FFC
:101A4000771F881F91505040A9F79E3F510570F0B5
:101A500060CFAACF5F3FECF3983EDCF38695779595
:101A60006795B795F795E7959F5FC1F7FE2B880FB0
:101A7000911D9695879597F90895629FD001739F60
:101A8000F001829FE00DF11D649FE00DF11D929F1A
:101A9000F00D839FF00D749FF00D659FF00D992759
:101AA000729FB00DE11DF91F639FB00DE11DF91F7D
:101AB000BD01CF011124089597FB092E07260AD0F6
:101AC00077FD04D049D006D000201AF470956195B6
:101AD0007F4F0895F6F7909581959F4F0895A1E265
:101AE0001A2EAA1BBB1BFD010DC0AA1FBB1FEE1F98
:101AF000FF1FA217B307E407F50720F0A21BB30BE3
:101B0000E40BF50B661F771F881F991F1A9469F75E
:101B100060957095809590959B01AC01BD01CF01BA
:101B2000089597FB092E05260ED057FD04D0D7DF68
:101B30000AD0001C38F450954095309521953F4FC0
:101B40004F4F5F4F0895F6F790958095709561958A
:101B50007F4F8F4F9F4F0895AA1BBB1B51E107C0BA
:101B6000AA1FBB1FA617B70710F0A61BB70B881F2D
:101B7000991F5A95A9F780959095BC01CD010895BC
:101B8000EE0FFF1F0590F491E02D0994F894FFCF1C
:101B90004C434420446973706C6179204C313A00A5
:101BA0004C434420446973706C6179204C323A0094
:101BB00000414C4552543A2048616C74696E67206C
:101BC00053797374656D210048414C54494E472048
:101BD00053595354454D00506C65617365205761EE
:101BE00069742E2E2E00494E464F3A204469737078
:101BF0006C6179696E67204D61696E204D656E7507
:101C000000312E205265666C6F7700322E204465BD
:101C1000736F6C6465720046492D415443535250B2
:101C200020302E303100466973686572496E6E6FE0
:101C3000766174696F6E00494E464F3A2042757462
:101C4000746F6E204F6E6500494E464F3A204275C4
:101C500074746F6E2054776F00494E464F3A20528D
:101C6000656164696E6720446576696365205465C3
:101C70006D70657261747572653A2000494E464F09
:101C80003A205374617274696E6720436F6F6C649D
:101C90006F776E2050726F6365737300494E464FC5
:101CA0003A205374617274696E67205265666C6F76
:101CB000772050726F63657373005265666C6F773F
:101CC000204554413A2000730054656D703A00433A
:101CD00000494E464F3A205374617274696E672012
:101CE0005265666C6F7720507265706572617469B9
:101CF0006F6E2050726F6365737300507265702051
:101D00004554413A2000494E464F3A20537461727F
:101D100074696E6720507265686561742050726FD7
:101D2000636573730050726568656174696E6720DE
:101D3000506C61746500432F32303000494E464F7D
:101D40003A2057616974696E6720466F7220537438
:101D500061626C652054656D706572617475726541
:101D60000053657474696E67204D696E2054656D0B
:101D70007000432F31353000494E464F3A2053749E
:101D800061626C652054656D706572617475726511
:101D900020466F756E643A20004D696E2E205465A2
:101DA0006D702053657400494E464F3A205374615C
:101DB0007274696E672053797374656D20436F6E1A
:101DC0006669670053797374656D20436F6E666949
:101DD0006700494E464F3A205265666C6F77205037
:101DE000726F63657373205374617274656400501D
:101DF0006C6163652043697263756974004F6E207E
:101E0000506C617465204E6F77005265666C6F7719
:101E100020446F6E650052656D6F76652043697270
:101E20006375697400436F6E666967204661696C0B
:101E30006564212100494E464F3A204465736F6C1A
:101E40006465722050726F6365737320537461729E
:101E50007465640048656174696E6720506C6174D4
:101E60006500506C6561736520576169742E2E00A2
:101E700052656D6F766520494300536F616B205347
:101E80006F6C64657200436F6F6C696E6720506C95
:101E9000617465004465736F6C64657220446F6E95
:101EA0006500060007000900B4000D00F401000001
:101EB00001000000000D010000400014005400006B
:061EC000000000FE080016
:00000001FF
